{
  "_format": "hh-sol-artifact-1",
  "contractName": "RentalAgreement",
  "sourceName": "contracts/RentalAgreement.sol",
  "abi": [
    {
      "inputs": [],
      "stateMutability": "nonpayable",
      "type": "constructor"
    },
    {
      "anonymous": false,
      "inputs": [
        {
          "indexed": false,
          "internalType": "bool",
          "name": "paused",
          "type": "bool"
        }
      ],
      "name": "ContractPaused",
      "type": "event"
    },
    {
      "anonymous": false,
      "inputs": [
        {
          "indexed": false,
          "internalType": "string",
          "name": "propertyId",
          "type": "string"
        },
        {
          "indexed": false,
          "internalType": "address",
          "name": "tenant",
          "type": "address"
        },
        {
          "indexed": false,
          "internalType": "uint256",
          "name": "amount",
          "type": "uint256"
        }
      ],
      "name": "DepositRefunded",
      "type": "event"
    },
    {
      "anonymous": false,
      "inputs": [
        {
          "indexed": false,
          "internalType": "string",
          "name": "propertyId",
          "type": "string"
        },
        {
          "indexed": false,
          "internalType": "uint256",
          "name": "amount",
          "type": "uint256"
        },
        {
          "indexed": false,
          "internalType": "uint256",
          "name": "timestamp",
          "type": "uint256"
        }
      ],
      "name": "RentPaid",
      "type": "event"
    },
    {
      "anonymous": false,
      "inputs": [
        {
          "indexed": false,
          "internalType": "string",
          "name": "propertyId",
          "type": "string"
        },
        {
          "indexed": false,
          "internalType": "address",
          "name": "tenant",
          "type": "address"
        },
        {
          "indexed": false,
          "internalType": "uint256",
          "name": "rentAmount",
          "type": "uint256"
        },
        {
          "indexed": false,
          "internalType": "uint256",
          "name": "depositAmount",
          "type": "uint256"
        }
      ],
      "name": "RentalCreated",
      "type": "event"
    },
    {
      "anonymous": false,
      "inputs": [
        {
          "indexed": false,
          "internalType": "string",
          "name": "propertyId",
          "type": "string"
        },
        {
          "indexed": false,
          "internalType": "uint256",
          "name": "timestamp",
          "type": "uint256"
        }
      ],
      "name": "RentalEnded",
      "type": "event"
    },
    {
      "anonymous": false,
      "inputs": [
        {
          "indexed": false,
          "internalType": "string",
          "name": "propertyId",
          "type": "string"
        },
        {
          "indexed": false,
          "internalType": "enum RentalAgreement.RentalStatus",
          "name": "newStatus",
          "type": "uint8"
        }
      ],
      "name": "RentalStatusChanged",
      "type": "event"
    },
    {
      "stateMutability": "nonpayable",
      "type": "fallback"
    },
    {
      "inputs": [
        {
          "internalType": "string",
          "name": "_propertyId",
          "type": "string"
        }
      ],
      "name": "activateRental",
      "outputs": [],
      "stateMutability": "payable",
      "type": "function"
    },
    {
      "inputs": [
        {
          "internalType": "string",
          "name": "_propertyId",
          "type": "string"
        },
        {
          "internalType": "address",
          "name": "_tenant",
          "type": "address"
        },
        {
          "internalType": "uint256",
          "name": "_rentAmount",
          "type": "uint256"
        },
        {
          "internalType": "uint256",
          "name": "_depositAmount",
          "type": "uint256"
        },
        {
          "internalType": "uint256",
          "name": "_lateFee",
          "type": "uint256"
        },
        {
          "internalType": "uint256",
          "name": "_rentInterval",
          "type": "uint256"
        }
      ],
      "name": "createRental",
      "outputs": [],
      "stateMutability": "nonpayable",
      "type": "function"
    },
    {
      "inputs": [
        {
          "internalType": "address",
          "name": "",
          "type": "address"
        }
      ],
      "name": "deposits",
      "outputs": [
        {
          "internalType": "uint256",
          "name": "",
          "type": "uint256"
        }
      ],
      "stateMutability": "view",
      "type": "function"
    },
    {
      "inputs": [
        {
          "internalType": "string",
          "name": "_propertyId",
          "type": "string"
        }
      ],
      "name": "endRental",
      "outputs": [],
      "stateMutability": "nonpayable",
      "type": "function"
    },
    {
      "inputs": [
        {
          "internalType": "string",
          "name": "_propertyId",
          "type": "string"
        }
      ],
      "name": "getDeposit",
      "outputs": [
        {
          "internalType": "uint256",
          "name": "",
          "type": "uint256"
        }
      ],
      "stateMutability": "view",
      "type": "function"
    },
    {
      "inputs": [],
      "name": "owner",
      "outputs": [
        {
          "internalType": "address",
          "name": "",
          "type": "address"
        }
      ],
      "stateMutability": "view",
      "type": "function"
    },
    {
      "inputs": [],
      "name": "paused",
      "outputs": [
        {
          "internalType": "bool",
          "name": "",
          "type": "bool"
        }
      ],
      "stateMutability": "view",
      "type": "function"
    },
    {
      "inputs": [
        {
          "internalType": "string",
          "name": "_propertyId",
          "type": "string"
        }
      ],
      "name": "payRent",
      "outputs": [],
      "stateMutability": "payable",
      "type": "function"
    },
    {
      "inputs": [
        {
          "internalType": "string",
          "name": "",
          "type": "string"
        }
      ],
      "name": "rentals",
      "outputs": [
        {
          "internalType": "string",
          "name": "propertyId",
          "type": "string"
        },
        {
          "internalType": "address",
          "name": "tenant",
          "type": "address"
        },
        {
          "internalType": "uint256",
          "name": "rentAmount",
          "type": "uint256"
        },
        {
          "internalType": "uint256",
          "name": "depositAmount",
          "type": "uint256"
        },
        {
          "internalType": "uint256",
          "name": "lateFee",
          "type": "uint256"
        },
        {
          "internalType": "uint256",
          "name": "rentDueDate",
          "type": "uint256"
        },
        {
          "internalType": "uint256",
          "name": "rentInterval",
          "type": "uint256"
        },
        {
          "internalType": "enum RentalAgreement.RentalStatus",
          "name": "status",
          "type": "uint8"
        },
        {
          "internalType": "uint256",
          "name": "startTime",
          "type": "uint256"
        },
        {
          "internalType": "uint256",
          "name": "endTime",
          "type": "uint256"
        }
      ],
      "stateMutability": "view",
      "type": "function"
    },
    {
      "inputs": [
        {
          "internalType": "bool",
          "name": "_paused",
          "type": "bool"
        }
      ],
      "name": "setPaused",
      "outputs": [],
      "stateMutability": "nonpayable",
      "type": "function"
    },
    {
      "inputs": [],
      "name": "withdrawFunds",
      "outputs": [],
      "stateMutability": "nonpayable",
      "type": "function"
    },
    {
      "stateMutability": "payable",
      "type": "receive"
    }
  ],
  "bytecode": "0x6080604052348015600f57600080fd5b50336000806101000a81548173ffffffffffffffffffffffffffffffffffffffff021916908373ffffffffffffffffffffffffffffffffffffffff16021790555060008060146101000a81548160ff02191690831515021790555061267a806100796000396000f3fe6080604052600436106100a05760003560e01c80637bef444c116100645780637bef444c146102025780638da5cb5b1461021e578063ca8bad9014610249578063d20747a814610265578063d5114ffa146102a2578063fc7e286d146102cb576100e0565b806306d05b161461012857806316c38b3c1461016e57806324600fc314610197578063571c7611146101ae5780635c975abb146101d7576100e0565b366100e0576040517f08c379a00000000000000000000000000000000000000000000000000000000081526004016100d7906116cc565b60405180910390fd5b3480156100ec57600080fd5b506040517f08c379a000000000000000000000000000000000000000000000000000000000815260040161011f90611738565b60405180910390fd5b34801561013457600080fd5b5061014f600480360381019061014a91906118b2565b610308565b6040516101659a99989796959493929190611a3a565b60405180910390f35b34801561017a57600080fd5b5061019560048036038101906101909190611b15565b610427565b005b3480156101a357600080fd5b506101ac610509565b005b3480156101ba57600080fd5b506101d560048036038101906101d091906118b2565b610649565b005b3480156101e357600080fd5b506101ec610a53565b6040516101f99190611b51565b60405180910390f35b61021c600480360381019061021791906118b2565b610a66565b005b34801561022a57600080fd5b50610233610e7d565b6040516102409190611b6c565b60405180910390f35b610263600480360381019061025e91906118b2565b610ea1565b005b34801561027157600080fd5b5061028c600480360381019061028791906118b2565b611222565b6040516102999190611b87565b60405180910390f35b3480156102ae57600080fd5b506102c960048036038101906102c49190611bfa565b61131c565b005b3480156102d757600080fd5b506102f260048036038101906102ed9190611ca3565b611657565b6040516102ff9190611b87565b60405180910390f35b60018180516020810182018051848252602083016020850120818352809550505050505060009150905080600001805461034190611cff565b80601f016020809104026020016040519081016040528092919081815260200182805461036d90611cff565b80156103ba5780601f1061038f576101008083540402835291602001916103ba565b820191906000526020600020905b81548152906001019060200180831161039d57829003601f168201915b5050505050908060010160009054906101000a900473ffffffffffffffffffffffffffffffffffffffff16908060020154908060030154908060040154908060050154908060060154908060070160009054906101000a900460ff1690806008015490806009015490508a565b60008054906101000a900473ffffffffffffffffffffffffffffffffffffffff1673ffffffffffffffffffffffffffffffffffffffff163373ffffffffffffffffffffffffffffffffffffffff16146104b5576040517f08c379a00000000000000000000000000000000000000000000000000000000081526004016104ac90611da2565b60405180910390fd5b80600060146101000a81548160ff0219169083151502179055507f752d7e161ff5146f80e3820893176eb40532811e5e20400dfdde57455213706a816040516104fe9190611b51565b60405180910390a150565b60008054906101000a900473ffffffffffffffffffffffffffffffffffffffff1673ffffffffffffffffffffffffffffffffffffffff163373ffffffffffffffffffffffffffffffffffffffff1614610597576040517f08c379a000000000000000000000000000000000000000000000000000000000815260040161058e90611da2565b60405180910390fd5b6000479050600081116105df576040517f08c379a00000000000000000000000000000000000000000000000000000000081526004016105d690611e0e565b60405180910390fd5b60008054906101000a900473ffffffffffffffffffffffffffffffffffffffff1673ffffffffffffffffffffffffffffffffffffffff166108fc829081150290604051600060405180830381858888f19350505050158015610645573d6000803e3d6000fd5b5050565b60008054906101000a900473ffffffffffffffffffffffffffffffffffffffff1673ffffffffffffffffffffffffffffffffffffffff163373ffffffffffffffffffffffffffffffffffffffff16146106d7576040517f08c379a00000000000000000000000000000000000000000000000000000000081526004016106ce90611da2565b60405180910390fd5b600060149054906101000a900460ff1615610727576040517f08c379a000000000000000000000000000000000000000000000000000000000815260040161071e90611e7a565b60405180910390fd5b60006001826040516107399190611ed6565b908152602001604051809103902090506001600381111561075d5761075c6119c3565b5b8160070160009054906101000a900460ff166003811115610781576107806119c3565b5b14806107c1575060038081111561079b5761079a6119c3565b5b8160070160009054906101000a900460ff1660038111156107bf576107be6119c3565b5b145b610800576040517f08c379a00000000000000000000000000000000000000000000000000000000081526004016107f790611f39565b60405180910390fd5b60028160070160006101000a81548160ff02191690836003811115610828576108276119c3565b5b02179055504281600901819055506000600260008360010160009054906101000a900473ffffffffffffffffffffffffffffffffffffffff1673ffffffffffffffffffffffffffffffffffffffff1673ffffffffffffffffffffffffffffffffffffffff16815260200190815260200160002054905060008111156109db576000600260008460010160009054906101000a900473ffffffffffffffffffffffffffffffffffffffff1673ffffffffffffffffffffffffffffffffffffffff1673ffffffffffffffffffffffffffffffffffffffff168152602001908152602001600020819055508160010160009054906101000a900473ffffffffffffffffffffffffffffffffffffffff1673ffffffffffffffffffffffffffffffffffffffff166108fc829081150290604051600060405180830381858888f1935050505015801561097a573d6000803e3d6000fd5b507f63927611f26314a3a601a2fbe97932047c942b0aed992e1464c7de624c878d87838360010160009054906101000a900473ffffffffffffffffffffffffffffffffffffffff16836040516109d293929190611f59565b60405180910390a15b7f1b6197dcde039ead72aebfad1024344a4b8cdba052f2da37310753d90523eadc8342604051610a0c929190611f97565b60405180910390a17f78a51fbe9a7887b4a795c6e48806fffd0898b0176e7f566e773ca61b83bdf673836002604051610a46929190611fc7565b60405180910390a1505050565b600060149054906101000a900460ff1681565b80600181604051610a779190611ed6565b908152602001604051809103902060010160009054906101000a900473ffffffffffffffffffffffffffffffffffffffff1673ffffffffffffffffffffffffffffffffffffffff163373ffffffffffffffffffffffffffffffffffffffff1614610b16576040517f08c379a0000000000000000000000000000000000000000000000000000000008152600401610b0d90612069565b60405180910390fd5b816000600182604051610b299190611ed6565b908152602001604051809103902060070160009054906101000a900460ff16905060016003811115610b5e57610b5d6119c3565b5b816003811115610b7157610b706119c3565b5b1480610ba05750600380811115610b8b57610b8a6119c3565b5b816003811115610b9e57610b9d6119c3565b5b145b610bdf576040517f08c379a0000000000000000000000000000000000000000000000000000000008152600401610bd6906120d5565b60405180910390fd5b600060149054906101000a900460ff1615610c2f576040517f08c379a0000000000000000000000000000000000000000000000000000000008152600401610c2690611e7a565b60405180910390fd5b6000600185604051610c419190611ed6565b9081526020016040518091039020905080600601548160050154610c659190612124565b421015610ca7576040517f08c379a0000000000000000000000000000000000000000000000000000000008152600401610c9e906121a4565b60405180910390fd5b6000816002015490508160050154421115610d005760038260070160006101000a81548160ff02191690836003811115610ce457610ce36119c3565b5b0217905550816004015481610cf991906121c4565b9050610d2e565b60018260070160006101000a81548160ff02191690836003811115610d2857610d276119c3565b5b02179055505b80341015610d71576040517f08c379a0000000000000000000000000000000000000000000000000000000008152600401610d6890612244565b60405180910390fd5b816006015442610d8191906121c4565b826005018190555060008054906101000a900473ffffffffffffffffffffffffffffffffffffffff1673ffffffffffffffffffffffffffffffffffffffff166108fc349081150290604051600060405180830381858888f19350505050158015610def573d6000803e3d6000fd5b507f730b5c506a4ccc345187a8258531f4865d18a7ff52b9712d0842e8200f0a71d2863442604051610e2393929190612264565b60405180910390a17f78a51fbe9a7887b4a795c6e48806fffd0898b0176e7f566e773ca61b83bdf673868360070160009054906101000a900460ff16604051610e6d929190611fc7565b60405180910390a1505050505050565b60008054906101000a900473ffffffffffffffffffffffffffffffffffffffff1681565b80600181604051610eb29190611ed6565b908152602001604051809103902060010160009054906101000a900473ffffffffffffffffffffffffffffffffffffffff1673ffffffffffffffffffffffffffffffffffffffff163373ffffffffffffffffffffffffffffffffffffffff1614610f51576040517f08c379a0000000000000000000000000000000000000000000000000000000008152600401610f4890612069565b60405180910390fd5b600060149054906101000a900460ff1615610fa1576040517f08c379a0000000000000000000000000000000000000000000000000000000008152600401610f9890611e7a565b60405180910390fd5b6000600183604051610fb39190611ed6565b9081526020016040518091039020905060006003811115610fd757610fd66119c3565b5b8160070160009054906101000a900460ff166003811115610ffb57610ffa6119c3565b5b1461103b576040517f08c379a0000000000000000000000000000000000000000000000000000000008152600401611032906122ee565b60405180910390fd5b8060030154816002015461104f91906121c4565b341015611091576040517f08c379a000000000000000000000000000000000000000000000000000000000815260040161108890612244565b60405180910390fd5b8060030154600260003373ffffffffffffffffffffffffffffffffffffffff1673ffffffffffffffffffffffffffffffffffffffff16815260200190815260200160002060008282546110e491906121c4565b9250508190555060018160070160006101000a81548160ff02191690836003811115611113576111126119c3565b5b021790555042816008018190555080600601544261113191906121c4565b816005018190555060008054906101000a900473ffffffffffffffffffffffffffffffffffffffff1673ffffffffffffffffffffffffffffffffffffffff166108fc82600201549081150290604051600060405180830381858888f193505050501580156111a3573d6000803e3d6000fd5b507f730b5c506a4ccc345187a8258531f4865d18a7ff52b9712d0842e8200f0a71d2838260020154426040516111db93929190612264565b60405180910390a17f78a51fbe9a7887b4a795c6e48806fffd0898b0176e7f566e773ca61b83bdf673836001604051611215929190611fc7565b60405180910390a1505050565b6000816001816040516112359190611ed6565b908152602001604051809103902060010160009054906101000a900473ffffffffffffffffffffffffffffffffffffffff1673ffffffffffffffffffffffffffffffffffffffff163373ffffffffffffffffffffffffffffffffffffffff16146112d4576040517f08c379a00000000000000000000000000000000000000000000000000000000081526004016112cb90612069565b60405180910390fd5b600260003373ffffffffffffffffffffffffffffffffffffffff1673ffffffffffffffffffffffffffffffffffffffff16815260200190815260200160002054915050919050565b60008054906101000a900473ffffffffffffffffffffffffffffffffffffffff1673ffffffffffffffffffffffffffffffffffffffff163373ffffffffffffffffffffffffffffffffffffffff16146113aa576040517f08c379a00000000000000000000000000000000000000000000000000000000081526004016113a190611da2565b60405180910390fd5b600060149054906101000a900460ff16156113fa576040517f08c379a00000000000000000000000000000000000000000000000000000000081526004016113f190611e7a565b60405180910390fd5b600073ffffffffffffffffffffffffffffffffffffffff166001876040516114229190611ed6565b908152602001604051809103902060010160009054906101000a900473ffffffffffffffffffffffffffffffffffffffff1673ffffffffffffffffffffffffffffffffffffffff16146114aa576040517f08c379a00000000000000000000000000000000000000000000000000000000081526004016114a19061235a565b60405180910390fd5b6040518061014001604052808781526020018673ffffffffffffffffffffffffffffffffffffffff168152602001858152602001848152602001838152602001600081526020018281526020016000600381111561150b5761150a6119c3565b5b815260200160008152602001600081525060018760405161152c9190611ed6565b9081526020016040518091039020600082015181600001908161154f9190612526565b5060208201518160010160006101000a81548173ffffffffffffffffffffffffffffffffffffffff021916908373ffffffffffffffffffffffffffffffffffffffff16021790555060408201518160020155606082015181600301556080820151816004015560a0820151816005015560c0820151816006015560e08201518160070160006101000a81548160ff021916908360038111156115f4576115f36119c3565b5b0217905550610100820151816008015561012082015181600901559050507fb3e8b4196d219a483bad7f8496e522574502771e0506457d61fa201ce34937ba8686868660405161164794939291906125f8565b60405180910390a1505050505050565b60026020528060005260406000206000915090505481565b600082825260208201905092915050565b7f44697265637420455448207472616e7366657273206e6f7420616c6c6f776564600082015250565b60006116b660208361166f565b91506116c182611680565b602082019050919050565b600060208201905081810360008301526116e5816116a9565b9050919050565b7f46756e6374696f6e20646f6573206e6f74206578697374000000000000000000600082015250565b600061172260178361166f565b915061172d826116ec565b602082019050919050565b6000602082019050818103600083015261175181611715565b9050919050565b6000604051905090565b600080fd5b600080fd5b600080fd5b600080fd5b6000601f19601f8301169050919050565b7f4e487b7100000000000000000000000000000000000000000000000000000000600052604160045260246000fd5b6117bf82611776565b810181811067ffffffffffffffff821117156117de576117dd611787565b5b80604052505050565b60006117f1611758565b90506117fd82826117b6565b919050565b600067ffffffffffffffff82111561181d5761181c611787565b5b61182682611776565b9050602081019050919050565b82818337600083830152505050565b600061185561185084611802565b6117e7565b90508281526020810184848401111561187157611870611771565b5b61187c848285611833565b509392505050565b600082601f8301126118995761189861176c565b5b81356118a9848260208601611842565b91505092915050565b6000602082840312156118c8576118c7611762565b5b600082013567ffffffffffffffff8111156118e6576118e5611767565b5b6118f284828501611884565b91505092915050565b600081519050919050565b60005b83811015611924578082015181840152602081019050611909565b60008484015250505050565b600061193b826118fb565b611945818561166f565b9350611955818560208601611906565b61195e81611776565b840191505092915050565b600073ffffffffffffffffffffffffffffffffffffffff82169050919050565b600061199482611969565b9050919050565b6119a481611989565b82525050565b6000819050919050565b6119bd816119aa565b82525050565b7f4e487b7100000000000000000000000000000000000000000000000000000000600052602160045260246000fd5b60048110611a0357611a026119c3565b5b50565b6000819050611a14826119f2565b919050565b6000611a2482611a06565b9050919050565b611a3481611a19565b82525050565b6000610140820190508181036000830152611a55818d611930565b9050611a64602083018c61199b565b611a71604083018b6119b4565b611a7e606083018a6119b4565b611a8b60808301896119b4565b611a9860a08301886119b4565b611aa560c08301876119b4565b611ab260e0830186611a2b565b611ac06101008301856119b4565b611ace6101208301846119b4565b9b9a5050505050505050505050565b60008115159050919050565b611af281611add565b8114611afd57600080fd5b50565b600081359050611b0f81611ae9565b92915050565b600060208284031215611b2b57611b2a611762565b5b6000611b3984828501611b00565b91505092915050565b611b4b81611add565b82525050565b6000602082019050611b666000830184611b42565b92915050565b6000602082019050611b81600083018461199b565b92915050565b6000602082019050611b9c60008301846119b4565b92915050565b611bab81611989565b8114611bb657600080fd5b50565b600081359050611bc881611ba2565b92915050565b611bd7816119aa565b8114611be257600080fd5b50565b600081359050611bf481611bce565b92915050565b60008060008060008060c08789031215611c1757611c16611762565b5b600087013567ffffffffffffffff811115611c3557611c34611767565b5b611c4189828a01611884565b9650506020611c5289828a01611bb9565b9550506040611c6389828a01611be5565b9450506060611c7489828a01611be5565b9350506080611c8589828a01611be5565b92505060a0611c9689828a01611be5565b9150509295509295509295565b600060208284031215611cb957611cb8611762565b5b6000611cc784828501611bb9565b91505092915050565b7f4e487b7100000000000000000000000000000000000000000000000000000000600052602260045260246000fd5b60006002820490506001821680611d1757607f821691505b602082108103611d2a57611d29611cd0565b5b50919050565b7f4f6e6c7920746865206f776e65722063616e2063616c6c20746869732066756e60008201527f6374696f6e000000000000000000000000000000000000000000000000000000602082015250565b6000611d8c60258361166f565b9150611d9782611d30565b604082019050919050565b60006020820190508181036000830152611dbb81611d7f565b9050919050565b7f4e6f2066756e647320746f207769746864726177000000000000000000000000600082015250565b6000611df860148361166f565b9150611e0382611dc2565b602082019050919050565b60006020820190508181036000830152611e2781611deb565b9050919050565b7f436f6e7472616374206973207061757365640000000000000000000000000000600082015250565b6000611e6460128361166f565b9150611e6f82611e2e565b602082019050919050565b60006020820190508181036000830152611e9381611e57565b9050919050565b600081905092915050565b6000611eb0826118fb565b611eba8185611e9a565b9350611eca818560208601611906565b80840191505092915050565b6000611ee28284611ea5565b915081905092915050565b7f52656e74616c206d75737420626520616374697665206f72206c617465000000600082015250565b6000611f23601d8361166f565b9150611f2e82611eed565b602082019050919050565b60006020820190508181036000830152611f5281611f16565b9050919050565b60006060820190508181036000830152611f738186611930565b9050611f82602083018561199b565b611f8f60408301846119b4565b949350505050565b60006040820190508181036000830152611fb18185611930565b9050611fc060208301846119b4565b9392505050565b60006040820190508181036000830152611fe18185611930565b9050611ff06020830184611a2b565b9392505050565b7f4f6e6c79207468652074656e616e742063616e2063616c6c207468697320667560008201527f6e6374696f6e0000000000000000000000000000000000000000000000000000602082015250565b600061205360268361166f565b915061205e82611ff7565b604082019050919050565b6000602082019050818103600083015261208281612046565b9050919050565b7f52656e74616c206d757374206265206163746976650000000000000000000000600082015250565b60006120bf60158361166f565b91506120ca82612089565b602082019050919050565b600060208201905081810360008301526120ee816120b2565b9050919050565b7f4e487b7100000000000000000000000000000000000000000000000000000000600052601160045260246000fd5b600061212f826119aa565b915061213a836119aa565b9250828203905081811115612152576121516120f5565b5b92915050565b7f546f6f206561726c7920746f207061792072656e740000000000000000000000600082015250565b600061218e60158361166f565b915061219982612158565b602082019050919050565b600060208201905081810360008301526121bd81612181565b9050919050565b60006121cf826119aa565b91506121da836119aa565b92508282019050808211156121f2576121f16120f5565b5b92915050565b7f496e73756666696369656e74207061796d656e74000000000000000000000000600082015250565b600061222e60148361166f565b9150612239826121f8565b602082019050919050565b6000602082019050818103600083015261225d81612221565b9050919050565b6000606082019050818103600083015261227e8186611930565b905061228d60208301856119b4565b61229a60408301846119b4565b949350505050565b7f52656e74616c206d7573742062652070656e64696e6700000000000000000000600082015250565b60006122d860168361166f565b91506122e3826122a2565b602082019050919050565b60006020820190508181036000830152612307816122cb565b9050919050565b7f50726f706572747920616c72656164792072656e746564000000000000000000600082015250565b600061234460178361166f565b915061234f8261230e565b602082019050919050565b6000602082019050818103600083015261237381612337565b9050919050565b60008190508160005260206000209050919050565b60006020601f8301049050919050565b600082821b905092915050565b6000600883026123dc7fffffffffffffffffffffffffffffffffffffffffffffffffffffffffffffffff8261239f565b6123e6868361239f565b95508019841693508086168417925050509392505050565b6000819050919050565b600061242361241e612419846119aa565b6123fe565b6119aa565b9050919050565b6000819050919050565b61243d83612408565b6124516124498261242a565b8484546123ac565b825550505050565b600090565b612466612459565b612471818484612434565b505050565b5b818110156124955761248a60008261245e565b600181019050612477565b5050565b601f8211156124da576124ab8161237a565b6124b48461238f565b810160208510156124c3578190505b6124d76124cf8561238f565b830182612476565b50505b505050565b600082821c905092915050565b60006124fd600019846008026124df565b1980831691505092915050565b600061251683836124ec565b9150826002028217905092915050565b61252f826118fb565b67ffffffffffffffff81111561254857612547611787565b5b6125528254611cff565b61255d828285612499565b600060209050601f831160018114612590576000841561257e578287015190505b612588858261250a565b8655506125f0565b601f19841661259e8661237a565b60005b828110156125c6578489015182556001820191506020850194506020810190506125a1565b868310156125e357848901516125df601f8916826124ec565b8355505b6001600288020188555050505b505050505050565b600060808201905081810360008301526126128187611930565b9050612621602083018661199b565b61262e60408301856119b4565b61263b60608301846119b4565b9594505050505056fea26469706673582212206eeeda8d2f17cea9ba19f74db392d8aee70e740a8f59533d1174d1387dda16ee64736f6c634300081c0033",
  "linkReferences": {},
  "deployedLinkReferences": {}
}