{
  "_format": "hh-sol-artifact-1",
  "contractName": "RentalAgreement",
  "sourceName": "contracts/RentalAgreement.sol",
  "abi": [
    {
      "inputs": [],
      "stateMutability": "nonpayable",
      "type": "constructor"
    },
    {
      "anonymous": false,
      "inputs": [
        {
          "indexed": false,
          "internalType": "bool",
          "name": "paused",
          "type": "bool"
        }
      ],
      "name": "ContractPaused",
      "type": "event"
    },
    {
      "anonymous": false,
      "inputs": [
        {
          "indexed": false,
          "internalType": "string",
          "name": "propertyId",
          "type": "string"
        },
        {
          "indexed": false,
          "internalType": "address",
          "name": "tenant",
          "type": "address"
        },
        {
          "indexed": false,
          "internalType": "uint256",
          "name": "amount",
          "type": "uint256"
        }
      ],
      "name": "DepositRefunded",
      "type": "event"
    },
    {
      "anonymous": false,
      "inputs": [
        {
          "indexed": false,
          "internalType": "string",
          "name": "propertyId",
          "type": "string"
        },
        {
          "indexed": false,
          "internalType": "uint256",
          "name": "amount",
          "type": "uint256"
        },
        {
          "indexed": false,
          "internalType": "uint256",
          "name": "timestamp",
          "type": "uint256"
        }
      ],
      "name": "RentPaid",
      "type": "event"
    },
    {
      "anonymous": false,
      "inputs": [
        {
          "indexed": false,
          "internalType": "string",
          "name": "propertyId",
          "type": "string"
        },
        {
          "indexed": false,
          "internalType": "address",
          "name": "tenant",
          "type": "address"
        },
        {
          "indexed": false,
          "internalType": "uint256",
          "name": "rentAmount",
          "type": "uint256"
        },
        {
          "indexed": false,
          "internalType": "uint256",
          "name": "depositAmount",
          "type": "uint256"
        }
      ],
      "name": "RentalCreated",
      "type": "event"
    },
    {
      "anonymous": false,
      "inputs": [
        {
          "indexed": false,
          "internalType": "string",
          "name": "propertyId",
          "type": "string"
        },
        {
          "indexed": false,
          "internalType": "uint256",
          "name": "timestamp",
          "type": "uint256"
        }
      ],
      "name": "RentalEnded",
      "type": "event"
    },
    {
      "anonymous": false,
      "inputs": [
        {
          "indexed": false,
          "internalType": "string",
          "name": "propertyId",
          "type": "string"
        },
        {
          "indexed": false,
          "internalType": "enum RentalAgreement.RentalStatus",
          "name": "newStatus",
          "type": "uint8"
        }
      ],
      "name": "RentalStatusChanged",
      "type": "event"
    },
    {
      "inputs": [
        {
          "internalType": "string",
          "name": "_propertyId",
          "type": "string"
        }
      ],
      "name": "activateRental",
      "outputs": [],
      "stateMutability": "payable",
      "type": "function"
    },
    {
      "inputs": [
        {
          "internalType": "string",
          "name": "_propertyId",
          "type": "string"
        },
        {
          "internalType": "address",
          "name": "_tenant",
          "type": "address"
        },
        {
          "internalType": "uint256",
          "name": "_rentAmount",
          "type": "uint256"
        },
        {
          "internalType": "uint256",
          "name": "_depositAmount",
          "type": "uint256"
        },
        {
          "internalType": "uint256",
          "name": "_lateFee",
          "type": "uint256"
        },
        {
          "internalType": "uint256",
          "name": "_rentInterval",
          "type": "uint256"
        }
      ],
      "name": "createRental",
      "outputs": [],
      "stateMutability": "nonpayable",
      "type": "function"
    },
    {
      "inputs": [
        {
          "internalType": "address",
          "name": "",
          "type": "address"
        }
      ],
      "name": "deposits",
      "outputs": [
        {
          "internalType": "uint256",
          "name": "",
          "type": "uint256"
        }
      ],
      "stateMutability": "view",
      "type": "function"
    },
    {
      "inputs": [
        {
          "internalType": "string",
          "name": "_propertyId",
          "type": "string"
        }
      ],
      "name": "endRental",
      "outputs": [],
      "stateMutability": "nonpayable",
      "type": "function"
    },
    {
      "inputs": [
        {
          "internalType": "string",
          "name": "_propertyId",
          "type": "string"
        }
      ],
      "name": "getDeposit",
      "outputs": [
        {
          "internalType": "uint256",
          "name": "",
          "type": "uint256"
        }
      ],
      "stateMutability": "view",
      "type": "function"
    },
    {
      "inputs": [],
      "name": "owner",
      "outputs": [
        {
          "internalType": "address",
          "name": "",
          "type": "address"
        }
      ],
      "stateMutability": "view",
      "type": "function"
    },
    {
      "inputs": [],
      "name": "paused",
      "outputs": [
        {
          "internalType": "bool",
          "name": "",
          "type": "bool"
        }
      ],
      "stateMutability": "view",
      "type": "function"
    },
    {
      "inputs": [
        {
          "internalType": "string",
          "name": "_propertyId",
          "type": "string"
        }
      ],
      "name": "payRent",
      "outputs": [],
      "stateMutability": "payable",
      "type": "function"
    },
    {
      "inputs": [
        {
          "internalType": "string",
          "name": "",
          "type": "string"
        }
      ],
      "name": "rentals",
      "outputs": [
        {
          "internalType": "string",
          "name": "propertyId",
          "type": "string"
        },
        {
          "internalType": "address",
          "name": "tenant",
          "type": "address"
        },
        {
          "internalType": "uint256",
          "name": "rentAmount",
          "type": "uint256"
        },
        {
          "internalType": "uint256",
          "name": "depositAmount",
          "type": "uint256"
        },
        {
          "internalType": "uint256",
          "name": "lateFee",
          "type": "uint256"
        },
        {
          "internalType": "uint256",
          "name": "rentDueDate",
          "type": "uint256"
        },
        {
          "internalType": "uint256",
          "name": "rentInterval",
          "type": "uint256"
        },
        {
          "internalType": "enum RentalAgreement.RentalStatus",
          "name": "status",
          "type": "uint8"
        },
        {
          "internalType": "uint256",
          "name": "startTime",
          "type": "uint256"
        },
        {
          "internalType": "uint256",
          "name": "endTime",
          "type": "uint256"
        }
      ],
      "stateMutability": "view",
      "type": "function"
    },
    {
      "inputs": [
        {
          "internalType": "bool",
          "name": "_paused",
          "type": "bool"
        }
      ],
      "name": "setPaused",
      "outputs": [],
      "stateMutability": "nonpayable",
      "type": "function"
    },
    {
      "inputs": [],
      "name": "withdrawFunds",
      "outputs": [],
      "stateMutability": "nonpayable",
      "type": "function"
    }
  ],
  "bytecode": "0x6080604052348015600f57600080fd5b50336000806101000a81548173ffffffffffffffffffffffffffffffffffffffff021916908373ffffffffffffffffffffffffffffffffffffffff16021790555060008060146101000a81548160ff0219169083151502179055506123f2806100796000396000f3fe60806040526004361061009c5760003560e01c80637bef444c116100645780637bef444c1461017b5780638da5cb5b14610197578063ca8bad90146101c2578063d20747a8146101de578063d5114ffa1461021b578063fc7e286d146102445761009c565b806306d05b16146100a157806316c38b3c146100e757806324600fc314610110578063571c7611146101275780635c975abb14610150575b600080fd5b3480156100ad57600080fd5b506100c860048036038101906100c3919061166d565b610281565b6040516100de9a99989796959493929190611806565b60405180910390f35b3480156100f357600080fd5b5061010e600480360381019061010991906118e1565b6103a0565b005b34801561011c57600080fd5b50610125610482565b005b34801561013357600080fd5b5061014e6004803603810190610149919061166d565b6105c2565b005b34801561015c57600080fd5b506101656109ac565b604051610172919061191d565b60405180910390f35b6101956004803603810190610190919061166d565b6109bf565b005b3480156101a357600080fd5b506101ac610d21565b6040516101b99190611938565b60405180910390f35b6101dc60048036038101906101d7919061166d565b610d45565b005b3480156101ea57600080fd5b506102056004803603810190610200919061166d565b6110c6565b6040516102129190611953565b60405180910390f35b34801561022757600080fd5b50610242600480360381019061023d91906119c6565b6111c0565b005b34801561025057600080fd5b5061026b60048036038101906102669190611a6f565b6114fb565b6040516102789190611953565b60405180910390f35b6001818051602081018201805184825260208301602085012081835280955050505050506000915090508060000180546102ba90611acb565b80601f01602080910402602001604051908101604052809291908181526020018280546102e690611acb565b80156103335780601f1061030857610100808354040283529160200191610333565b820191906000526020600020905b81548152906001019060200180831161031657829003601f168201915b5050505050908060010160009054906101000a900473ffffffffffffffffffffffffffffffffffffffff16908060020154908060030154908060040154908060050154908060060154908060070160009054906101000a900460ff1690806008015490806009015490508a565b60008054906101000a900473ffffffffffffffffffffffffffffffffffffffff1673ffffffffffffffffffffffffffffffffffffffff163373ffffffffffffffffffffffffffffffffffffffff161461042e576040517f08c379a000000000000000000000000000000000000000000000000000000000815260040161042590611b6e565b60405180910390fd5b80600060146101000a81548160ff0219169083151502179055507f752d7e161ff5146f80e3820893176eb40532811e5e20400dfdde57455213706a81604051610477919061191d565b60405180910390a150565b60008054906101000a900473ffffffffffffffffffffffffffffffffffffffff1673ffffffffffffffffffffffffffffffffffffffff163373ffffffffffffffffffffffffffffffffffffffff1614610510576040517f08c379a000000000000000000000000000000000000000000000000000000000815260040161050790611b6e565b60405180910390fd5b600047905060008111610558576040517f08c379a000000000000000000000000000000000000000000000000000000000815260040161054f90611bda565b60405180910390fd5b60008054906101000a900473ffffffffffffffffffffffffffffffffffffffff1673ffffffffffffffffffffffffffffffffffffffff166108fc829081150290604051600060405180830381858888f193505050501580156105be573d6000803e3d6000fd5b5050565b60008054906101000a900473ffffffffffffffffffffffffffffffffffffffff1673ffffffffffffffffffffffffffffffffffffffff163373ffffffffffffffffffffffffffffffffffffffff1614610650576040517f08c379a000000000000000000000000000000000000000000000000000000000815260040161064790611b6e565b60405180910390fd5b80600160038111156106655761066461178f565b5b6001826040516106759190611c36565b908152602001604051809103902060070160009054906101000a900460ff1660038111156106a6576106a561178f565b5b146106e6576040517f08c379a00000000000000000000000000000000000000000000000000000000081526004016106dd90611c99565b60405180910390fd5b600060149054906101000a900460ff1615610736576040517f08c379a000000000000000000000000000000000000000000000000000000000815260040161072d90611d05565b60405180910390fd5b60006001836040516107489190611c36565b9081526020016040518091039020905060028160070160006101000a81548160ff021916908360038111156107805761077f61178f565b5b02179055504281600901819055506000600260008360010160009054906101000a900473ffffffffffffffffffffffffffffffffffffffff1673ffffffffffffffffffffffffffffffffffffffff1673ffffffffffffffffffffffffffffffffffffffff1681526020019081526020016000205490506000811115610933576000600260008460010160009054906101000a900473ffffffffffffffffffffffffffffffffffffffff1673ffffffffffffffffffffffffffffffffffffffff1673ffffffffffffffffffffffffffffffffffffffff168152602001908152602001600020819055508160010160009054906101000a900473ffffffffffffffffffffffffffffffffffffffff1673ffffffffffffffffffffffffffffffffffffffff166108fc829081150290604051600060405180830381858888f193505050501580156108d2573d6000803e3d6000fd5b507f63927611f26314a3a601a2fbe97932047c942b0aed992e1464c7de624c878d87848360010160009054906101000a900473ffffffffffffffffffffffffffffffffffffffff168360405161092a93929190611d25565b60405180910390a15b7f1b6197dcde039ead72aebfad1024344a4b8cdba052f2da37310753d90523eadc8442604051610964929190611d63565b60405180910390a17f78a51fbe9a7887b4a795c6e48806fffd0898b0176e7f566e773ca61b83bdf67384600260405161099e929190611d93565b60405180910390a150505050565b600060149054906101000a900460ff1681565b806001816040516109d09190611c36565b908152602001604051809103902060010160009054906101000a900473ffffffffffffffffffffffffffffffffffffffff1673ffffffffffffffffffffffffffffffffffffffff163373ffffffffffffffffffffffffffffffffffffffff1614610a6f576040517f08c379a0000000000000000000000000000000000000000000000000000000008152600401610a6690611e35565b60405180910390fd5b8160016003811115610a8457610a8361178f565b5b600182604051610a949190611c36565b908152602001604051809103902060070160009054906101000a900460ff166003811115610ac557610ac461178f565b5b14610b05576040517f08c379a0000000000000000000000000000000000000000000000000000000008152600401610afc90611c99565b60405180910390fd5b600060149054906101000a900460ff1615610b55576040517f08c379a0000000000000000000000000000000000000000000000000000000008152600401610b4c90611d05565b60405180910390fd5b6000600184604051610b679190611c36565b908152602001604051809103902090506000816002015490508160050154421115610bcc5760038260070160006101000a81548160ff02191690836003811115610bb457610bb361178f565b5b0217905550816004015481610bc99190611e84565b90505b80341015610c0f576040517f08c379a0000000000000000000000000000000000000000000000000000000008152600401610c0690611f2a565b60405180910390fd5b8160060154826005016000828254610c279190611e84565b9250508190555060008054906101000a900473ffffffffffffffffffffffffffffffffffffffff1673ffffffffffffffffffffffffffffffffffffffff166108fc349081150290604051600060405180830381858888f19350505050158015610c94573d6000803e3d6000fd5b507f730b5c506a4ccc345187a8258531f4865d18a7ff52b9712d0842e8200f0a71d2853442604051610cc893929190611f4a565b60405180910390a17f78a51fbe9a7887b4a795c6e48806fffd0898b0176e7f566e773ca61b83bdf673858360070160009054906101000a900460ff16604051610d12929190611d93565b60405180910390a15050505050565b60008054906101000a900473ffffffffffffffffffffffffffffffffffffffff1681565b80600181604051610d569190611c36565b908152602001604051809103902060010160009054906101000a900473ffffffffffffffffffffffffffffffffffffffff1673ffffffffffffffffffffffffffffffffffffffff163373ffffffffffffffffffffffffffffffffffffffff1614610df5576040517f08c379a0000000000000000000000000000000000000000000000000000000008152600401610dec90611e35565b60405180910390fd5b600060149054906101000a900460ff1615610e45576040517f08c379a0000000000000000000000000000000000000000000000000000000008152600401610e3c90611d05565b60405180910390fd5b6000600183604051610e579190611c36565b9081526020016040518091039020905060006003811115610e7b57610e7a61178f565b5b8160070160009054906101000a900460ff166003811115610e9f57610e9e61178f565b5b14610edf576040517f08c379a0000000000000000000000000000000000000000000000000000000008152600401610ed690611fd4565b60405180910390fd5b80600301548160020154610ef39190611e84565b341015610f35576040517f08c379a0000000000000000000000000000000000000000000000000000000008152600401610f2c90612066565b60405180910390fd5b8060030154600260003373ffffffffffffffffffffffffffffffffffffffff1673ffffffffffffffffffffffffffffffffffffffff1681526020019081526020016000206000828254610f889190611e84565b9250508190555060018160070160006101000a81548160ff02191690836003811115610fb757610fb661178f565b5b0217905550428160080181905550806006015442610fd59190611e84565b816005018190555060008054906101000a900473ffffffffffffffffffffffffffffffffffffffff1673ffffffffffffffffffffffffffffffffffffffff166108fc82600201549081150290604051600060405180830381858888f19350505050158015611047573d6000803e3d6000fd5b507f730b5c506a4ccc345187a8258531f4865d18a7ff52b9712d0842e8200f0a71d28382600201544260405161107f93929190611f4a565b60405180910390a17f78a51fbe9a7887b4a795c6e48806fffd0898b0176e7f566e773ca61b83bdf6738360016040516110b9929190611d93565b60405180910390a1505050565b6000816001816040516110d99190611c36565b908152602001604051809103902060010160009054906101000a900473ffffffffffffffffffffffffffffffffffffffff1673ffffffffffffffffffffffffffffffffffffffff163373ffffffffffffffffffffffffffffffffffffffff1614611178576040517f08c379a000000000000000000000000000000000000000000000000000000000815260040161116f90611e35565b60405180910390fd5b600260003373ffffffffffffffffffffffffffffffffffffffff1673ffffffffffffffffffffffffffffffffffffffff16815260200190815260200160002054915050919050565b60008054906101000a900473ffffffffffffffffffffffffffffffffffffffff1673ffffffffffffffffffffffffffffffffffffffff163373ffffffffffffffffffffffffffffffffffffffff161461124e576040517f08c379a000000000000000000000000000000000000000000000000000000000815260040161124590611b6e565b60405180910390fd5b600060149054906101000a900460ff161561129e576040517f08c379a000000000000000000000000000000000000000000000000000000000815260040161129590611d05565b60405180910390fd5b600073ffffffffffffffffffffffffffffffffffffffff166001876040516112c69190611c36565b908152602001604051809103902060010160009054906101000a900473ffffffffffffffffffffffffffffffffffffffff1673ffffffffffffffffffffffffffffffffffffffff161461134e576040517f08c379a0000000000000000000000000000000000000000000000000000000008152600401611345906120d2565b60405180910390fd5b6040518061014001604052808781526020018673ffffffffffffffffffffffffffffffffffffffff16815260200185815260200184815260200183815260200160008152602001828152602001600060038111156113af576113ae61178f565b5b81526020016000815260200160008152506001876040516113d09190611c36565b908152602001604051809103902060008201518160000190816113f3919061229e565b5060208201518160010160006101000a81548173ffffffffffffffffffffffffffffffffffffffff021916908373ffffffffffffffffffffffffffffffffffffffff16021790555060408201518160020155606082015181600301556080820151816004015560a0820151816005015560c0820151816006015560e08201518160070160006101000a81548160ff021916908360038111156114985761149761178f565b5b0217905550610100820151816008015561012082015181600901559050507fb3e8b4196d219a483bad7f8496e522574502771e0506457d61fa201ce34937ba868686866040516114eb9493929190612370565b60405180910390a1505050505050565b60026020528060005260406000206000915090505481565b6000604051905090565b600080fd5b600080fd5b600080fd5b600080fd5b6000601f19601f8301169050919050565b7f4e487b7100000000000000000000000000000000000000000000000000000000600052604160045260246000fd5b61157a82611531565b810181811067ffffffffffffffff8211171561159957611598611542565b5b80604052505050565b60006115ac611513565b90506115b88282611571565b919050565b600067ffffffffffffffff8211156115d8576115d7611542565b5b6115e182611531565b9050602081019050919050565b82818337600083830152505050565b600061161061160b846115bd565b6115a2565b90508281526020810184848401111561162c5761162b61152c565b5b6116378482856115ee565b509392505050565b600082601f83011261165457611653611527565b5b81356116648482602086016115fd565b91505092915050565b6000602082840312156116835761168261151d565b5b600082013567ffffffffffffffff8111156116a1576116a0611522565b5b6116ad8482850161163f565b91505092915050565b600081519050919050565b600082825260208201905092915050565b60005b838110156116f05780820151818401526020810190506116d5565b60008484015250505050565b6000611707826116b6565b61171181856116c1565b93506117218185602086016116d2565b61172a81611531565b840191505092915050565b600073ffffffffffffffffffffffffffffffffffffffff82169050919050565b600061176082611735565b9050919050565b61177081611755565b82525050565b6000819050919050565b61178981611776565b82525050565b7f4e487b7100000000000000000000000000000000000000000000000000000000600052602160045260246000fd5b600481106117cf576117ce61178f565b5b50565b60008190506117e0826117be565b919050565b60006117f0826117d2565b9050919050565b611800816117e5565b82525050565b6000610140820190508181036000830152611821818d6116fc565b9050611830602083018c611767565b61183d604083018b611780565b61184a606083018a611780565b6118576080830189611780565b61186460a0830188611780565b61187160c0830187611780565b61187e60e08301866117f7565b61188c610100830185611780565b61189a610120830184611780565b9b9a5050505050505050505050565b60008115159050919050565b6118be816118a9565b81146118c957600080fd5b50565b6000813590506118db816118b5565b92915050565b6000602082840312156118f7576118f661151d565b5b6000611905848285016118cc565b91505092915050565b611917816118a9565b82525050565b6000602082019050611932600083018461190e565b92915050565b600060208201905061194d6000830184611767565b92915050565b60006020820190506119686000830184611780565b92915050565b61197781611755565b811461198257600080fd5b50565b6000813590506119948161196e565b92915050565b6119a381611776565b81146119ae57600080fd5b50565b6000813590506119c08161199a565b92915050565b60008060008060008060c087890312156119e3576119e261151d565b5b600087013567ffffffffffffffff811115611a0157611a00611522565b5b611a0d89828a0161163f565b9650506020611a1e89828a01611985565b9550506040611a2f89828a016119b1565b9450506060611a4089828a016119b1565b9350506080611a5189828a016119b1565b92505060a0611a6289828a016119b1565b9150509295509295509295565b600060208284031215611a8557611a8461151d565b5b6000611a9384828501611985565b91505092915050565b7f4e487b7100000000000000000000000000000000000000000000000000000000600052602260045260246000fd5b60006002820490506001821680611ae357607f821691505b602082108103611af657611af5611a9c565b5b50919050565b7f4f6e6c7920746865206f776e65722063616e2063616c6c20746869732066756e60008201527f6374696f6e000000000000000000000000000000000000000000000000000000602082015250565b6000611b586025836116c1565b9150611b6382611afc565b604082019050919050565b60006020820190508181036000830152611b8781611b4b565b9050919050565b7f4e6f2066756e647320746f207769746864726177000000000000000000000000600082015250565b6000611bc46014836116c1565b9150611bcf82611b8e565b602082019050919050565b60006020820190508181036000830152611bf381611bb7565b9050919050565b600081905092915050565b6000611c10826116b6565b611c1a8185611bfa565b9350611c2a8185602086016116d2565b80840191505092915050565b6000611c428284611c05565b915081905092915050565b7f52656e74616c206d757374206265206163746976650000000000000000000000600082015250565b6000611c836015836116c1565b9150611c8e82611c4d565b602082019050919050565b60006020820190508181036000830152611cb281611c76565b9050919050565b7f436f6e7472616374206973207061757365640000000000000000000000000000600082015250565b6000611cef6012836116c1565b9150611cfa82611cb9565b602082019050919050565b60006020820190508181036000830152611d1e81611ce2565b9050919050565b60006060820190508181036000830152611d3f81866116fc565b9050611d4e6020830185611767565b611d5b6040830184611780565b949350505050565b60006040820190508181036000830152611d7d81856116fc565b9050611d8c6020830184611780565b9392505050565b60006040820190508181036000830152611dad81856116fc565b9050611dbc60208301846117f7565b9392505050565b7f4f6e6c79207468652074656e616e742063616e2063616c6c207468697320667560008201527f6e6374696f6e0000000000000000000000000000000000000000000000000000602082015250565b6000611e1f6026836116c1565b9150611e2a82611dc3565b604082019050919050565b60006020820190508181036000830152611e4e81611e12565b9050919050565b7f4e487b7100000000000000000000000000000000000000000000000000000000600052601160045260246000fd5b6000611e8f82611776565b9150611e9a83611776565b9250828201905080821115611eb257611eb1611e55565b5b92915050565b7f496e73756666696369656e74207061796d656e7420666f722072656e7420616e60008201527f64206c6174652066656500000000000000000000000000000000000000000000602082015250565b6000611f14602a836116c1565b9150611f1f82611eb8565b604082019050919050565b60006020820190508181036000830152611f4381611f07565b9050919050565b60006060820190508181036000830152611f6481866116fc565b9050611f736020830185611780565b611f806040830184611780565b949350505050565b7f52656e74616c206d7573742062652070656e64696e6700000000000000000000600082015250565b6000611fbe6016836116c1565b9150611fc982611f88565b602082019050919050565b60006020820190508181036000830152611fed81611fb1565b9050919050565b7f496e73756666696369656e74207061796d656e74202872656e74202b2064657060008201527f6f73697429000000000000000000000000000000000000000000000000000000602082015250565b60006120506025836116c1565b915061205b82611ff4565b604082019050919050565b6000602082019050818103600083015261207f81612043565b9050919050565b7f50726f706572747920616c72656164792072656e746564000000000000000000600082015250565b60006120bc6017836116c1565b91506120c782612086565b602082019050919050565b600060208201905081810360008301526120eb816120af565b9050919050565b60008190508160005260206000209050919050565b60006020601f8301049050919050565b600082821b905092915050565b6000600883026121547fffffffffffffffffffffffffffffffffffffffffffffffffffffffffffffffff82612117565b61215e8683612117565b95508019841693508086168417925050509392505050565b6000819050919050565b600061219b61219661219184611776565b612176565b611776565b9050919050565b6000819050919050565b6121b583612180565b6121c96121c1826121a2565b848454612124565b825550505050565b600090565b6121de6121d1565b6121e98184846121ac565b505050565b5b8181101561220d576122026000826121d6565b6001810190506121ef565b5050565b601f82111561225257612223816120f2565b61222c84612107565b8101602085101561223b578190505b61224f61224785612107565b8301826121ee565b50505b505050565b600082821c905092915050565b600061227560001984600802612257565b1980831691505092915050565b600061228e8383612264565b9150826002028217905092915050565b6122a7826116b6565b67ffffffffffffffff8111156122c0576122bf611542565b5b6122ca8254611acb565b6122d5828285612211565b600060209050601f83116001811461230857600084156122f6578287015190505b6123008582612282565b865550612368565b601f198416612316866120f2565b60005b8281101561233e57848901518255600182019150602085019450602081019050612319565b8683101561235b5784890151612357601f891682612264565b8355505b6001600288020188555050505b505050505050565b6000608082019050818103600083015261238a81876116fc565b90506123996020830186611767565b6123a66040830185611780565b6123b36060830184611780565b9594505050505056fea2646970667358221220d52c98bcd5b33f007c2442d8effc5c845c9964147a1b8c4dca0a63977c46b07d64736f6c634300081c0033",
  "linkReferences": {},
  "deployedLinkReferences": {}
}